{
  "contractName": "MultiFlowApp",
  "abi": [
    {
      "inputs": [
        {
          "internalType": "contract IConstantFlowAgreementV1",
          "name": "cfa",
          "type": "address"
        },
        {
          "internalType": "contract ISuperfluid",
          "name": "superfluid",
          "type": "address"
        }
      ],
      "stateMutability": "nonpayable",
      "type": "constructor"
    },
    {
      "inputs": [
        {
          "internalType": "contract ISuperToken",
          "name": "",
          "type": "address"
        },
        {
          "internalType": "address",
          "name": "",
          "type": "address"
        },
        {
          "internalType": "bytes32",
          "name": "",
          "type": "bytes32"
        },
        {
          "internalType": "bytes",
          "name": "",
          "type": "bytes"
        },
        {
          "internalType": "bytes",
          "name": "",
          "type": "bytes"
        }
      ],
      "name": "beforeAgreementCreated",
      "outputs": [
        {
          "internalType": "bytes",
          "name": "",
          "type": "bytes"
        }
      ],
      "stateMutability": "view",
      "type": "function"
    },
    {
      "inputs": [
        {
          "internalType": "contract ISuperToken",
          "name": "",
          "type": "address"
        },
        {
          "internalType": "address",
          "name": "",
          "type": "address"
        },
        {
          "internalType": "bytes32",
          "name": "",
          "type": "bytes32"
        },
        {
          "internalType": "bytes",
          "name": "",
          "type": "bytes"
        },
        {
          "internalType": "bytes",
          "name": "",
          "type": "bytes"
        }
      ],
      "name": "beforeAgreementTerminated",
      "outputs": [
        {
          "internalType": "bytes",
          "name": "",
          "type": "bytes"
        }
      ],
      "stateMutability": "view",
      "type": "function"
    },
    {
      "inputs": [
        {
          "internalType": "contract ISuperToken",
          "name": "superToken",
          "type": "address"
        },
        {
          "internalType": "address",
          "name": "receiver",
          "type": "address"
        },
        {
          "internalType": "int96",
          "name": "flowRate",
          "type": "int96"
        },
        {
          "internalType": "bytes",
          "name": "ctx",
          "type": "bytes"
        }
      ],
      "name": "createFlow",
      "outputs": [
        {
          "internalType": "bytes",
          "name": "newCtx",
          "type": "bytes"
        }
      ],
      "stateMutability": "nonpayable",
      "type": "function"
    },
    {
      "inputs": [
        {
          "internalType": "contract ISuperToken",
          "name": "superToken",
          "type": "address"
        },
        {
          "internalType": "address",
          "name": "agreementClass",
          "type": "address"
        },
        {
          "internalType": "bytes32",
          "name": "agreementId",
          "type": "bytes32"
        },
        {
          "internalType": "bytes",
          "name": "agreementData",
          "type": "bytes"
        },
        {
          "internalType": "bytes",
          "name": "",
          "type": "bytes"
        },
        {
          "internalType": "bytes",
          "name": "ctx",
          "type": "bytes"
        }
      ],
      "name": "afterAgreementCreated",
      "outputs": [
        {
          "internalType": "bytes",
          "name": "newCtx",
          "type": "bytes"
        }
      ],
      "stateMutability": "nonpayable",
      "type": "function"
    },
    {
      "inputs": [
        {
          "internalType": "contract ISuperToken",
          "name": "superToken",
          "type": "address"
        },
        {
          "internalType": "address",
          "name": "agreementClass",
          "type": "address"
        },
        {
          "internalType": "bytes32",
          "name": "agreementId",
          "type": "bytes32"
        },
        {
          "internalType": "bytes",
          "name": "",
          "type": "bytes"
        },
        {
          "internalType": "bytes",
          "name": "",
          "type": "bytes"
        }
      ],
      "name": "beforeAgreementUpdated",
      "outputs": [
        {
          "internalType": "bytes",
          "name": "cbdata",
          "type": "bytes"
        }
      ],
      "stateMutability": "view",
      "type": "function"
    },
    {
      "inputs": [
        {
          "internalType": "contract ISuperToken",
          "name": "superToken",
          "type": "address"
        },
        {
          "internalType": "address",
          "name": "agreementClass",
          "type": "address"
        },
        {
          "internalType": "bytes32",
          "name": "agreementId",
          "type": "bytes32"
        },
        {
          "internalType": "bytes",
          "name": "agreementData",
          "type": "bytes"
        },
        {
          "internalType": "bytes",
          "name": "",
          "type": "bytes"
        },
        {
          "internalType": "bytes",
          "name": "ctx",
          "type": "bytes"
        }
      ],
      "name": "afterAgreementUpdated",
      "outputs": [
        {
          "internalType": "bytes",
          "name": "newCtx",
          "type": "bytes"
        }
      ],
      "stateMutability": "nonpayable",
      "type": "function"
    },
    {
      "inputs": [
        {
          "internalType": "contract ISuperToken",
          "name": "superToken",
          "type": "address"
        },
        {
          "internalType": "address",
          "name": "agreementClass",
          "type": "address"
        },
        {
          "internalType": "bytes32",
          "name": "",
          "type": "bytes32"
        },
        {
          "internalType": "bytes",
          "name": "agreementData",
          "type": "bytes"
        },
        {
          "internalType": "bytes",
          "name": "",
          "type": "bytes"
        },
        {
          "internalType": "bytes",
          "name": "ctx",
          "type": "bytes"
        }
      ],
      "name": "afterAgreementTerminated",
      "outputs": [
        {
          "internalType": "bytes",
          "name": "newCtx",
          "type": "bytes"
        }
      ],
      "stateMutability": "nonpayable",
      "type": "function"
    }
  ],
  "bytecode": "0x60806040523480156200001157600080fd5b506040516200319c3803806200319c833981810160405281019062000037919062000204565b600073ffffffffffffffffffffffffffffffffffffffff168273ffffffffffffffffffffffffffffffffffffffff1614156200006f57fe5b600073ffffffffffffffffffffffffffffffffffffffff168173ffffffffffffffffffffffffffffffffffffffff161415620000a757fe5b816000806101000a81548173ffffffffffffffffffffffffffffffffffffffff021916908373ffffffffffffffffffffffffffffffffffffffff16021790555080600160006101000a81548173ffffffffffffffffffffffffffffffffffffffff021916908373ffffffffffffffffffffffffffffffffffffffff1602179055506000641000000000640100000000600117179050600160009054906101000a900473ffffffffffffffffffffffffffffffffffffffff1673ffffffffffffffffffffffffffffffffffffffff1663ad3915c8826040518263ffffffff1660e01b815260040162000199919062000256565b600060405180830381600087803b158015620001b457600080fd5b505af1158015620001c9573d6000803e3d6000fd5b505050505050506200030d565b600081519050620001e781620002d9565b92915050565b600081519050620001fe81620002f3565b92915050565b600080604083850312156200021857600080fd5b60006200022885828601620001d6565b92505060206200023b85828601620001ed565b9150509250929050565b6200025081620002cf565b82525050565b60006020820190506200026d600083018462000245565b92915050565b60006200028082620002af565b9050919050565b6000620002948262000273565b9050919050565b6000620002a88262000273565b9050919050565b600073ffffffffffffffffffffffffffffffffffffffff82169050919050565b6000819050919050565b620002e48162000287565b8114620002f057600080fd5b50565b620002fe816200029b565b81146200030a57600080fd5b50565b612e7f806200031d6000396000f3fe608060405234801561001057600080fd5b506004361061007d5760003560e01c80635f9e7d771161005b5780635f9e7d771461011257806362fc305e14610142578063884d1f4014610172578063d86ed3e5146101a25761007d565b8063230dbd291461008257806330d9c915146100b257806353c11f99146100e2575b600080fd5b61009c60048036038101906100979190612575565b6101d2565b6040516100a991906128bd565b60405180910390f35b6100cc60048036038101906100c791906124c5565b610581565b6040516100d991906128bd565b60405180910390f35b6100fc60048036038101906100f79190612575565b6105d4565b60405161010991906128bd565b60405180910390f35b61012c600480360381019061012791906124c5565b610fca565b60405161013991906128bd565b60405180910390f35b61015c60048036038101906101579190612654565b61101d565b60405161016991906128bd565b60405180910390f35b61018c600480360381019061018791906124c5565b61121e565b60405161019991906128bd565b60405180910390f35b6101bc60048036038101906101b79190612575565b6113b0565b6040516101c991906128bd565b60405180910390f35b6060600160009054906101000a900473ffffffffffffffffffffffffffffffffffffffff1673ffffffffffffffffffffffffffffffffffffffff163373ffffffffffffffffffffffffffffffffffffffff161461022b57fe5b60008054906101000a900473ffffffffffffffffffffffffffffffffffffffff1673ffffffffffffffffffffffffffffffffffffffff168973ffffffffffffffffffffffffffffffffffffffff161461028057fe5b610288611df0565b600160009054906101000a900473ffffffffffffffffffffffffffffffffffffffff1673ffffffffffffffffffffffffffffffffffffffff16633f6c923a85856040518363ffffffff1660e01b81526004016102e5929190612899565b60006040518083038186803b1580156102fd57600080fd5b505afa158015610311573d6000803e3d6000fd5b505050506040513d6000823e3d601f19601f8201168201806040525081019061033a91906126fd565b8160000181905250610353816000015160a0015161175f565b82602001836040018290528273ffffffffffffffffffffffffffffffffffffffff1673ffffffffffffffffffffffffffffffffffffffff168152505050878781019061039f919061238a565b82606001836080018273ffffffffffffffffffffffffffffffffffffffff1673ffffffffffffffffffffffffffffffffffffffff168152508273ffffffffffffffffffffffffffffffffffffffff1673ffffffffffffffffffffffffffffffffffffffff16815250505080600001516060015173ffffffffffffffffffffffffffffffffffffffff16816060015173ffffffffffffffffffffffffffffffffffffffff161461044a57fe5b3073ffffffffffffffffffffffffffffffffffffffff16816080015173ffffffffffffffffffffffffffffffffffffffff161461048357fe5b6000816000015160c001511161049557fe5b60008060009054906101000a900473ffffffffffffffffffffffffffffffffffffffff1673ffffffffffffffffffffffffffffffffffffffff1663aabd26688d8c6040518363ffffffff1660e01b81526004016104f3929190612a2d565b60806040518083038186803b15801561050b57600080fd5b505afa15801561051f573d6000803e3d6000fd5b505050506040513d601f19601f820116820180604052508101906105439190612767565b909192509050508091505061057082604001518d6350209a6260e01b84866000015160c001518a8a6118b5565b925050509998505050505050505050565b60606040517f08c379a000000000000000000000000000000000000000000000000000000000815260040180806020018281038252602f815260200180612e1b602f913960400191505060405180910390fd5b6060600160009054906101000a900473ffffffffffffffffffffffffffffffffffffffff1673ffffffffffffffffffffffffffffffffffffffff163373ffffffffffffffffffffffffffffffffffffffff161461062d57fe5b60008054906101000a900473ffffffffffffffffffffffffffffffffffffffff1673ffffffffffffffffffffffffffffffffffffffff168973ffffffffffffffffffffffffffffffffffffffff161461068257fe5b61068a611df0565b600160009054906101000a900473ffffffffffffffffffffffffffffffffffffffff1673ffffffffffffffffffffffffffffffffffffffff16633f6c923a85856040518363ffffffff1660e01b81526004016106e7929190612899565b60006040518083038186803b1580156106ff57600080fd5b505afa158015610713573d6000803e3d6000fd5b505050506040513d6000823e3d601f19601f8201168201806040525081019061073c91906126fd565b8160000181905250610755816000015160a0015161175f565b82602001836040018290528273ffffffffffffffffffffffffffffffffffffffff1673ffffffffffffffffffffffffffffffffffffffff16815250505087878101906107a1919061238a565b82606001836080018273ffffffffffffffffffffffffffffffffffffffff1673ffffffffffffffffffffffffffffffffffffffff168152508273ffffffffffffffffffffffffffffffffffffffff1673ffffffffffffffffffffffffffffffffffffffff1681525050503073ffffffffffffffffffffffffffffffffffffffff16816060015173ffffffffffffffffffffffffffffffffffffffff16148061087857503073ffffffffffffffffffffffffffffffffffffffff16816080015173ffffffffffffffffffffffffffffffffffffffff16145b61087e57fe5b606084848080601f016020809104026020016040519081016040528093929190818152602001838380828437600081840152601f19601f8201169050808301925050505050505092503073ffffffffffffffffffffffffffffffffffffffff16826080015173ffffffffffffffffffffffffffffffffffffffff161415610b365760005b82604001516020015151811015610b305763b4b333c660e01b8d30856040015160200151848151811061093157fe5b602002602001015160000151600067ffffffffffffffff8111801561095557600080fd5b506040519080825280601f01601f1916602001820160405280156109885781602001600182028036833780820191505090505b5060405160240161099c9493929190612995565b604051602081830303815290604052907bffffffffffffffffffffffffffffffffffffffffffffffffffffffff19166020820180517bffffffffffffffffffffffffffffffffffffffffffffffffffffffff83818316178352505050509150600160009054906101000a900473ffffffffffffffffffffffffffffffffffffffff1673ffffffffffffffffffffffffffffffffffffffff16634329d29360008054906101000a900473ffffffffffffffffffffffffffffffffffffffff1684600067ffffffffffffffff81118015610a7357600080fd5b506040519080825280601f01601f191660200182016040528015610aa65781602001600182028036833780820191505090505b50886040518563ffffffff1660e01b8152600401610ac7949392919061293b565b600060405180830381600087803b158015610ae157600080fd5b505af1158015610af5573d6000803e3d6000fd5b505050506040513d6000823e3d601f19601f82011682018060405250810190610b1e9190612459565b50809450508080600101915050610902565b50610fbb565b60005b82604001516020015151811015610dc457826080015173ffffffffffffffffffffffffffffffffffffffff168360400151602001518281518110610b7957fe5b60200260200101516000015173ffffffffffffffffffffffffffffffffffffffff161415610ba657610db7565b63b4b333c660e01b8d308560400151602001518481518110610bc457fe5b602002602001015160000151600067ffffffffffffffff81118015610be857600080fd5b506040519080825280601f01601f191660200182016040528015610c1b5781602001600182028036833780820191505090505b50604051602401610c2f9493929190612995565b604051602081830303815290604052907bffffffffffffffffffffffffffffffffffffffffffffffffffffffff19166020820180517bffffffffffffffffffffffffffffffffffffffffffffffffffffffff83818316178352505050509150600160009054906101000a900473ffffffffffffffffffffffffffffffffffffffff1673ffffffffffffffffffffffffffffffffffffffff16634329d29360008054906101000a900473ffffffffffffffffffffffffffffffffffffffff1684600067ffffffffffffffff81118015610d0657600080fd5b506040519080825280601f01601f191660200182016040528015610d395781602001600182028036833780820191505090505b50886040518563ffffffff1660e01b8152600401610d5a949392919061293b565b600060405180830381600087803b158015610d7457600080fd5b505af1158015610d88573d6000803e3d6000fd5b505050506040513d6000823e3d601f19601f82011682018060405250810190610db19190612459565b50809450505b8080600101915050610b39565b5063b4b333c660e01b8c836020015130600067ffffffffffffffff81118015610dec57600080fd5b506040519080825280601f01601f191660200182016040528015610e1f5781602001600182028036833780820191505090505b50604051602401610e339493929190612995565b604051602081830303815290604052907bffffffffffffffffffffffffffffffffffffffffffffffffffffffff19166020820180517bffffffffffffffffffffffffffffffffffffffffffffffffffffffff83818316178352505050509050600160009054906101000a900473ffffffffffffffffffffffffffffffffffffffff1673ffffffffffffffffffffffffffffffffffffffff16634329d29360008054906101000a900473ffffffffffffffffffffffffffffffffffffffff1683600067ffffffffffffffff81118015610f0a57600080fd5b506040519080825280601f01601f191660200182016040528015610f3d5781602001600182028036833780820191505090505b50876040518563ffffffff1660e01b8152600401610f5e949392919061293b565b600060405180830381600087803b158015610f7857600080fd5b505af1158015610f8c573d6000803e3d6000fd5b505050506040513d6000823e3d601f19601f82011682018060405250810190610fb59190612459565b50809350505b50509998505050505050505050565b60606040517f08c379a0000000000000000000000000000000000000000000000000000000008152600401808060200182810382526033815260200180612de86033913960400191505060405180910390fd5b606060006362fc305e60e01b878787600067ffffffffffffffff8111801561104457600080fd5b506040519080825280601f01601f1916602001820160405280156110775781602001600182028036833780820191505090505b5060405160240161108b94939291906129e1565b604051602081830303815290604052907bffffffffffffffffffffffffffffffffffffffffffffffffffffffff19166020820180517bffffffffffffffffffffffffffffffffffffffffffffffffffffffff83818316178352505050509050600160009054906101000a900473ffffffffffffffffffffffffffffffffffffffff1673ffffffffffffffffffffffffffffffffffffffff16634329d29360008054906101000a900473ffffffffffffffffffffffffffffffffffffffff1683600067ffffffffffffffff8111801561116257600080fd5b506040519080825280601f01601f1916602001820160405280156111955781602001600182028036833780820191505090505b5088886040518663ffffffff1660e01b81526004016111b89594939291906128df565b600060405180830381600087803b1580156111d257600080fd5b505af11580156111e6573d6000803e3d6000fd5b505050506040513d6000823e3d601f19601f8201168201806040525081019061120f9190612459565b50809250505095945050505050565b6060600160009054906101000a900473ffffffffffffffffffffffffffffffffffffffff1673ffffffffffffffffffffffffffffffffffffffff163373ffffffffffffffffffffffffffffffffffffffff161461127757fe5b60008054906101000a900473ffffffffffffffffffffffffffffffffffffffff1673ffffffffffffffffffffffffffffffffffffffff168773ffffffffffffffffffffffffffffffffffffffff16146112cc57fe5b60008060009054906101000a900473ffffffffffffffffffffffffffffffffffffffff1673ffffffffffffffffffffffffffffffffffffffff1663aabd26688a896040518363ffffffff1660e01b815260040161132a929190612a2d565b60806040518083038186803b15801561134257600080fd5b505afa158015611356573d6000803e3d6000fd5b505050506040513d601f19601f8201168201806040525081019061137a9190612767565b5050600b0b915050806040516020016113939190612aa8565b604051602081830303815290604052915050979650505050505050565b6060600160009054906101000a900473ffffffffffffffffffffffffffffffffffffffff1673ffffffffffffffffffffffffffffffffffffffff163373ffffffffffffffffffffffffffffffffffffffff161461140957fe5b60008054906101000a900473ffffffffffffffffffffffffffffffffffffffff1673ffffffffffffffffffffffffffffffffffffffff168973ffffffffffffffffffffffffffffffffffffffff161461145e57fe5b611466611df0565b600160009054906101000a900473ffffffffffffffffffffffffffffffffffffffff1673ffffffffffffffffffffffffffffffffffffffff16633f6c923a85856040518363ffffffff1660e01b81526004016114c3929190612899565b60006040518083038186803b1580156114db57600080fd5b505afa1580156114ef573d6000803e3d6000fd5b505050506040513d6000823e3d601f19601f8201168201806040525081019061151891906126fd565b8160000181905250611531816000015160a0015161175f565b82602001836040018290528273ffffffffffffffffffffffffffffffffffffffff1673ffffffffffffffffffffffffffffffffffffffff168152505050878781019061157d919061238a565b82606001836080018273ffffffffffffffffffffffffffffffffffffffff1673ffffffffffffffffffffffffffffffffffffffff168152508273ffffffffffffffffffffffffffffffffffffffff1673ffffffffffffffffffffffffffffffffffffffff16815250505080600001516060015173ffffffffffffffffffffffffffffffffffffffff16816060015173ffffffffffffffffffffffffffffffffffffffff161461162857fe5b3073ffffffffffffffffffffffffffffffffffffffff16816080015173ffffffffffffffffffffffffffffffffffffffff161461166157fe5b6000816000015160c001511161167357fe5b60008060009054906101000a900473ffffffffffffffffffffffffffffffffffffffff1673ffffffffffffffffffffffffffffffffffffffff1663aabd26688d8c6040518363ffffffff1660e01b81526004016116d1929190612a2d565b60806040518083038186803b1580156116e957600080fd5b505afa1580156116fd573d6000803e3d6000fd5b505050506040513d601f19601f820116820180604052508101906117219190612767565b909192509050508091505061174e82604001518d6362fc305e60e01b84866000015160c001518a8a6118b5565b925050509998505050505050505050565b6000611769611e6d565b60006060808580602001905181019061178291906123c6565b80945081955082965083985050505050805182511461179d57fe5b82846000019060ff16908160ff1681525050815167ffffffffffffffff811180156117c757600080fd5b5060405190808252806020026020018201604052801561180157816020015b6117ee611e8a565b8152602001906001900390816117e65790505b50846020018190525060005b82518110156118ac57600082828151811061182457fe5b60200260200101511161183357fe5b604051806040016040528084838151811061184a57fe5b602002602001015173ffffffffffffffffffffffffffffffffffffffff16815260200183838151811061187957fe5b60200260200101518152508560200151828151811061189457fe5b6020026020010181905250808060010191505061180d565b50505050915091565b606060006118c68960200151611db0565b905083838080601f016020809104026020016040519081016040528093929190818152602001838380828437600081840152601f19601f82011690508083019250505050505050915060008060009054906101000a900473ffffffffffffffffffffffffffffffffffffffff1673ffffffffffffffffffffffffffffffffffffffff16630602f7db8a600189036040518363ffffffff1660e01b8152600401611970929190612a7f565b60206040518083038186803b15801561198857600080fd5b505afa15801561199c573d6000803e3d6000fd5b505050506040513d601f19601f820116820180604052508101906119c091906126d4565b905060008054906101000a900473ffffffffffffffffffffffffffffffffffffffff1673ffffffffffffffffffffffffffffffffffffffff16638d997f6e8a836040518363ffffffff1660e01b8152600401611a1d929190612a56565b60206040518083038186803b158015611a3557600080fd5b505afa158015611a49573d6000803e3d6000fd5b505050506040513d601f19601f82011682018060405250810190611a6d919061273e565b955060648a6000015160ff16870281611a8257fe5b04955060648a6000015160ff168802600b0b81611a9b57fe5b05965060005b8a6020015151811015611d945760008b602001518281518110611ac057fe5b6020026020010151905060008482602001518a0281611adb57fe5b04905060008060009054906101000a900473ffffffffffffffffffffffffffffffffffffffff1673ffffffffffffffffffffffffffffffffffffffff16630602f7db8e846040518363ffffffff1660e01b8152600401611b3c929190612a7f565b60206040518083038186803b158015611b5457600080fd5b505afa158015611b68573d6000803e3d6000fd5b505050506040513d601f19601f82011682018060405250810190611b8c91906126d4565b9050808b039a5060008c8e856000015184600067ffffffffffffffff81118015611bb557600080fd5b506040519080825280601f01601f191660200182016040528015611be85781602001600182028036833780820191505090505b50604051602401611bfc94939291906129e1565b604051602081830303815290604052907bffffffffffffffffffffffffffffffffffffffffffffffffffffffff19166020820180517bffffffffffffffffffffffffffffffffffffffffffffffffffffffff83818316178352505050509050600160009054906101000a900473ffffffffffffffffffffffffffffffffffffffff1673ffffffffffffffffffffffffffffffffffffffff16634329d29360008054906101000a900473ffffffffffffffffffffffffffffffffffffffff1683600067ffffffffffffffff81118015611cd357600080fd5b506040519080825280601f01601f191660200182016040528015611d065781602001600182028036833780820191505090505b508c6040518563ffffffff1660e01b8152600401611d27949392919061293b565b600060405180830381600087803b158015611d4157600080fd5b505af1158015611d55573d6000803e3d6000fd5b505050506040513d6000823e3d601f19601f82011682018060405250810190611d7e9190612459565b5080985050505050508080600101915050611aa1565b50600087600b0b1215611da357fe5b5050979650505050505050565b600080600090505b8251811015611dea57828181518110611dcd57fe5b602002602001015160200151820191508080600101915050611db8565b50919050565b6040518060a00160405280611e03611eba565b8152602001600073ffffffffffffffffffffffffffffffffffffffff168152602001611e2d611e6d565b8152602001600073ffffffffffffffffffffffffffffffffffffffff168152602001600073ffffffffffffffffffffffffffffffffffffffff1681525090565b6040518060400160405280600060ff168152602001606081525090565b6040518060400160405280600073ffffffffffffffffffffffffffffffffffffffff168152602001600081525090565b604051806101600160405280600060ff168152602001600060ff16815260200160008152602001600073ffffffffffffffffffffffffffffffffffffffff16815260200160007bffffffffffffffffffffffffffffffffffffffffffffffffffffffff1916815260200160608152602001600081526020016000815260200160008152602001600073ffffffffffffffffffffffffffffffffffffffff168152602001600073ffffffffffffffffffffffffffffffffffffffff1681525090565b6000611f8e611f8984612af4565b612ac3565b90508083825260208201905082856020860282011115611fad57600080fd5b60005b85811015611fdd5781611fc388826120a6565b845260208401935060208301925050600181019050611fb0565b5050509392505050565b6000611ffa611ff584612b20565b612ac3565b9050808382526020820190508285602086028201111561201957600080fd5b60005b85811015612049578161202f8882612360565b84526020840193506020830192505060018101905061201c565b5050509392505050565b600061206661206184612b4c565b612ac3565b90508281526020810184848401111561207e57600080fd5b612089848285612cbb565b509392505050565b6000813590506120a081612d01565b92915050565b6000815190506120b581612d01565b92915050565b6000813590506120ca81612d18565b92915050565b6000815190506120df81612d18565b92915050565b600082601f8301126120f657600080fd5b8151612106848260208601611f7b565b91505092915050565b600082601f83011261212057600080fd5b8151612130848260208601611fe7565b91505092915050565b60008135905061214881612d2f565b92915050565b60008151905061215d81612d46565b92915050565b60008083601f84011261217557600080fd5b8235905067ffffffffffffffff81111561218e57600080fd5b6020830191508360018202830111156121a657600080fd5b9250929050565b600082601f8301126121be57600080fd5b81516121ce848260208601612053565b91505092915050565b6000813590506121e681612d5d565b92915050565b6000815190506121fb81612d74565b92915050565b60008151905061221081612d8b565b92915050565b60008135905061222581612da2565b92915050565b60008151905061223a81612da2565b92915050565b6000610160828403121561225357600080fd5b61225e610160612ac3565b9050600061226e84828501612375565b600083015250602061228284828501612375565b602083015250604061229684828501612360565b60408301525060606122aa848285016120a6565b60608301525060806122be8482850161214e565b60808301525060a082015167ffffffffffffffff8111156122de57600080fd5b6122ea848285016121ad565b60a08301525060c06122fe84828501612360565b60c08301525060e061231284828501612360565b60e08301525061010061232784828501612201565b6101008301525061012061233d848285016120a6565b61012083015250610140612353848285016121ec565b6101408301525092915050565b60008151905061236f81612db9565b92915050565b60008151905061238481612dd0565b92915050565b6000806040838503121561239d57600080fd5b60006123ab858286016120bb565b92505060206123bc858286016120bb565b9150509250929050565b600080600080608085870312156123dc57600080fd5b60006123ea878288016120d0565b94505060206123fb87828801612375565b935050604085015167ffffffffffffffff81111561241857600080fd5b612424878288016120e5565b925050606085015167ffffffffffffffff81111561244157600080fd5b61244d8782880161210f565b91505092959194509250565b6000806040838503121561246c57600080fd5b600083015167ffffffffffffffff81111561248657600080fd5b612492858286016121ad565b925050602083015167ffffffffffffffff8111156124af57600080fd5b6124bb858286016121ad565b9150509250929050565b600080600080600080600060a0888a0312156124e057600080fd5b60006124ee8a828b016121d7565b97505060206124ff8a828b01612091565b96505060406125108a828b01612139565b955050606088013567ffffffffffffffff81111561252d57600080fd5b6125398a828b01612163565b9450945050608088013567ffffffffffffffff81111561255857600080fd5b6125648a828b01612163565b925092505092959891949750929550565b600080600080600080600080600060c08a8c03121561259357600080fd5b60006125a18c828d016121d7565b99505060206125b28c828d01612091565b98505060406125c38c828d01612139565b97505060608a013567ffffffffffffffff8111156125e057600080fd5b6125ec8c828d01612163565b965096505060808a013567ffffffffffffffff81111561260b57600080fd5b6126178c828d01612163565b945094505060a08a013567ffffffffffffffff81111561263657600080fd5b6126428c828d01612163565b92509250509295985092959850929598565b60008060008060006080868803121561266c57600080fd5b600061267a888289016121d7565b955050602061268b88828901612091565b945050604061269c88828901612216565b935050606086013567ffffffffffffffff8111156126b957600080fd5b6126c588828901612163565b92509250509295509295909350565b6000602082840312156126e657600080fd5b60006126f48482850161222b565b91505092915050565b60006020828403121561270f57600080fd5b600082015167ffffffffffffffff81111561272957600080fd5b61273584828501612240565b91505092915050565b60006020828403121561275057600080fd5b600061275e84828501612360565b91505092915050565b6000806000806080858703121561277d57600080fd5b600061278b87828801612360565b945050602061279c8782880161222b565b93505060406127ad87828801612360565b92505060606127be87828801612360565b91505092959194509250565b6127d381612b98565b82525050565b6127e281612bbc565b82525050565b60006127f48385612b87565b9350612801838584612cac565b61280a83612cf0565b840190509392505050565b600061282082612b7c565b61282a8185612b87565b935061283a818560208601612cbb565b61284381612cf0565b840191505092915050565b61285781612c64565b82525050565b61286681612c88565b82525050565b61287581612c16565b82525050565b61288481612c20565b82525050565b61289381612c4d565b82525050565b600060208201905081810360008301526128b48184866127e8565b90509392505050565b600060208201905081810360008301526128d78184612815565b905092915050565b60006080820190506128f4600083018861284e565b81810360208301526129068187612815565b9050818103604083015261291a8186612815565b9050818103606083015261292f8184866127e8565b90509695505050505050565b6000608082019050612950600083018761284e565b81810360208301526129628186612815565b905081810360408301526129768185612815565b9050818103606083015261298a8184612815565b905095945050505050565b60006080820190506129aa600083018761285d565b6129b760208301866127ca565b6129c460408301856127ca565b81810360608301526129d68184612815565b905095945050505050565b60006080820190506129f6600083018761285d565b612a0360208301866127ca565b612a10604083018561287b565b8181036060830152612a228184612815565b905095945050505050565b6000604082019050612a42600083018561285d565b612a4f60208301846127d9565b9392505050565b6000604082019050612a6b600083018561285d565b612a78602083018461287b565b9392505050565b6000604082019050612a94600083018561285d565b612aa1602083018461288a565b9392505050565b6000602082019050612abd600083018461286c565b92915050565b6000604051905081810181811067ffffffffffffffff82111715612aea57612ae9612cee565b5b8060405250919050565b600067ffffffffffffffff821115612b0f57612b0e612cee565b5b602082029050602081019050919050565b600067ffffffffffffffff821115612b3b57612b3a612cee565b5b602082029050602081019050919050565b600067ffffffffffffffff821115612b6757612b66612cee565b5b601f19601f8301169050602081019050919050565b600081519050919050565b600082825260208201905092915050565b6000612ba382612c2d565b9050919050565b6000612bb582612c2d565b9050919050565b6000819050919050565b60007fffffffff0000000000000000000000000000000000000000000000000000000082169050919050565b6000612bfd82612b98565b9050919050565b6000612c0f82612b98565b9050919050565b6000819050919050565b600081600b0b9050919050565b600073ffffffffffffffffffffffffffffffffffffffff82169050919050565b6000819050919050565b600060ff82169050919050565b6000612c6f82612c76565b9050919050565b6000612c8182612c2d565b9050919050565b6000612c9382612c9a565b9050919050565b6000612ca582612c2d565b9050919050565b82818337600083830152505050565b60005b83811015612cd9578082015181840152602081019050612cbe565b83811115612ce8576000848401525b50505050565bfe5b6000601f19601f8301169050919050565b612d0a81612b98565b8114612d1557600080fd5b50565b612d2181612baa565b8114612d2c57600080fd5b50565b612d3881612bbc565b8114612d4357600080fd5b50565b612d4f81612bc6565b8114612d5a57600080fd5b50565b612d6681612bf2565b8114612d7157600080fd5b50565b612d7d81612c04565b8114612d8857600080fd5b50565b612d9481612c16565b8114612d9f57600080fd5b50565b612dab81612c20565b8114612db657600080fd5b50565b612dc281612c4d565b8114612dcd57600080fd5b50565b612dd981612c57565b8114612de457600080fd5b5056fe556e737570706f727465642063616c6c6261636b202d20204265666f72652041677265656d656e74205465726d696e61746564556e737570706f727465642063616c6c6261636b202d204265666f72652041677265656d656e742043726561746564a2646970667358221220fae0c4c00ef241f423b897bb3896208a0a5682e47bcbf499256bee4d2749fea064736f6c63430007060033",
  "immutableReferences": {},
  "source": "// SPDX-License-Identifier: AGPLv3\npragma solidity 0.7.6;\npragma experimental ABIEncoderV2;\n\nimport {\n    ISuperfluid,\n    ISuperToken,\n    SuperAppBase,\n    SuperAppDefinitions\n} from \"@superfluid-finance/ethereum-contracts/contracts/apps/SuperAppBase.sol\";\nimport { IConstantFlowAgreementV1 } from \"@superfluid-finance/ethereum-contracts/contracts/interfaces/agreements/IConstantFlowAgreementV1.sol\";\n\n\n/**\n * @dev Multi Flow (Super) App\n *\n * A super app that can split incoming flows to multiple outgoing flows.\n *\n * This is used for testing CFA callbacks logic.\n */\ncontract MultiFlowApp is SuperAppBase {\n\n    struct ReceiverData {\n        address to;\n        uint256 proportion;\n    }\n\n    struct Configuration {\n        uint8 ratioPct;\n        ReceiverData[] receivers;\n    }\n\n    IConstantFlowAgreementV1 private _cfa;\n    ISuperfluid private _host;\n\n    constructor(IConstantFlowAgreementV1 cfa, ISuperfluid superfluid) {\n        assert(address(cfa) != address(0));\n        assert(address(superfluid) != address(0));\n        _cfa = cfa;\n        _host = superfluid;\n\n        uint256 configWord =\n            SuperAppDefinitions.APP_LEVEL_FINAL |\n            SuperAppDefinitions.BEFORE_AGREEMENT_CREATED_NOOP |\n            SuperAppDefinitions.BEFORE_AGREEMENT_TERMINATED_NOOP;\n\n        _host.registerApp(configWord);\n    }\n\n    function _parseUserData(\n        bytes memory userData\n    )\n        private pure\n        returns (address sender, Configuration memory configuration)\n    {\n        // parse user data\n        uint8 ratioPct;\n        address[] memory receivers;\n        uint256[] memory proportions;\n        (sender, ratioPct, receivers, proportions) = abi.decode(\n            userData, (address, uint8, address[], uint256[]));\n        assert(receivers.length == proportions.length);\n\n        configuration.ratioPct = ratioPct;\n        configuration.receivers = new ReceiverData[](receivers.length);\n        for(uint256 i = 0; i < receivers.length; i++) {\n            assert(proportions[i] > 0);\n            configuration.receivers[i] = ReceiverData(receivers[i], proportions[i]);\n        }\n    }\n\n    function _sumProportions(ReceiverData[] memory receivers) internal pure returns(uint256 sum) {\n        for(uint256 i = 0; i < receivers.length; i++) {\n            sum += receivers[i].proportion;\n        }\n    }\n\n    function _updateMultiFlow(\n        Configuration memory configuration,\n        ISuperToken superToken,\n        bytes4 selector,\n        int96 flowRate,\n        uint256 appAllowanceGranted,\n        bytes calldata ctx\n    )\n        private\n        returns (bytes memory newCtx)\n    {\n        uint256 sum = _sumProportions(configuration.receivers);\n\n        newCtx = ctx;\n\n        // in case of mfa, we underutlize the app allowance for simplicity\n        int96 safeFlowRate = _cfa.getMaximumFlowRateFromDeposit(superToken, appAllowanceGranted - 1);\n        appAllowanceGranted = _cfa.getDepositRequiredForFlowRate(superToken, safeFlowRate);\n\n        // scale the flow rate and app allowance numbers\n        appAllowanceGranted = appAllowanceGranted * configuration.ratioPct / 100;\n        flowRate = flowRate * configuration.ratioPct / 100;\n\n        for(uint256 i = 0; i < configuration.receivers.length; i++) {\n            ReceiverData memory receiverData = configuration.receivers[i];\n            uint256 targetAllowance = appAllowanceGranted * receiverData.proportion / sum;\n            int96 targetFlowRate = _cfa.getMaximumFlowRateFromDeposit(\n                superToken,\n                targetAllowance\n            );\n            flowRate -= targetFlowRate;\n            bytes memory callData = abi.encodeWithSelector(\n                selector,\n                superToken,\n                receiverData.to,\n                targetFlowRate,\n                new bytes(0)\n            );\n            (newCtx, ) = _host.callAgreementWithContext(\n                _cfa,\n                callData,\n                new bytes(0), // user data\n                newCtx\n            );\n        }\n        assert(flowRate >= 0);\n    }\n\n    // this function is for testing purpose\n    function createFlow(\n        ISuperToken superToken,\n        address receiver,\n        int96 flowRate,\n        bytes calldata ctx\n    )\n        external\n        returns (bytes memory newCtx)\n    {\n        bytes memory callData = abi.encodeWithSelector(\n            _cfa.createFlow.selector,\n            superToken,\n            receiver,\n            flowRate,\n            new bytes(0));\n        (newCtx, ) = _host.callAgreementWithContext(\n            _cfa,\n            callData,\n            new bytes(0), // user data\n            ctx\n        );\n    }\n\n    struct StackVars {\n    \tISuperfluid.Context context;\n        address mfaSender;\n        Configuration configuration;\n        address flowSender;\n        address flowReceiver;\n    }\n\n    function afterAgreementCreated(\n        ISuperToken superToken,\n        address agreementClass,\n        bytes32 agreementId,\n        bytes calldata agreementData,\n        bytes calldata /*cbdata*/,\n        bytes calldata ctx\n    )\n        external override\n        onlyHost\n        returns(bytes memory newCtx)\n    {\n        assert(agreementClass == address(_cfa));\n        StackVars memory vars;\n\n        vars.context = _host.decodeCtx(ctx);\n        // parse user data\n        (vars.mfaSender, vars.configuration) = _parseUserData(vars.context.userData);\n        // validate the context\n        {\n            (vars.flowSender, vars.flowReceiver) = abi.decode(agreementData, (address, address));\n            assert(vars.flowSender == vars.context.msgSender);\n            assert(vars.flowReceiver == address(this));\n            assert(vars.context.appAllowanceGranted > 0);\n        }\n        int96 flowRate;\n        (,flowRate,,) = _cfa.getFlowByID(superToken, agreementId);\n        newCtx = _updateMultiFlow(\n            vars.configuration,\n            superToken,\n            _cfa.createFlow.selector,\n            flowRate,\n            vars.context.appAllowanceGranted,\n            ctx);\n    }\n\n    function beforeAgreementUpdated(\n        ISuperToken superToken,\n        address agreementClass,\n        bytes32 agreementId,\n        bytes calldata /*agreementData*/,\n        bytes calldata /*ctx*/\n    )\n        external view override\n        onlyHost\n        returns (bytes memory cbdata)\n    {\n        assert(agreementClass == address(_cfa));\n        (, int256 oldFlowRate, ,) = _cfa.getFlowByID(superToken, agreementId);\n        return abi.encode(oldFlowRate);\n    }\n\n    function afterAgreementUpdated(\n        ISuperToken superToken,\n        address agreementClass,\n        bytes32 agreementId,\n        bytes calldata agreementData,\n        bytes calldata /* cbdata */,\n        bytes calldata ctx\n    )\n        external override\n        onlyHost\n        returns (bytes memory newCtx)\n    {\n        assert(agreementClass == address(_cfa));\n        StackVars memory vars;\n\n        vars.context = _host.decodeCtx(ctx);\n        // parse user data\n        (vars.mfaSender, vars.configuration) = _parseUserData(vars.context.userData);\n        // validate the context\n        {\n            (vars.flowSender, vars.flowReceiver) = abi.decode(agreementData, (address, address));\n            assert(vars.flowSender == vars.context.msgSender);\n            assert(vars.flowReceiver == address(this));\n            assert(vars.context.appAllowanceGranted > 0);\n        }\n        int96 flowRate;\n        (,flowRate,,) = _cfa.getFlowByID(superToken, agreementId);\n        newCtx = _updateMultiFlow(\n            vars.configuration,\n            superToken,\n            _cfa.updateFlow.selector,\n            flowRate,\n            vars.context.appAllowanceGranted,\n            ctx);\n    }\n\n    function afterAgreementTerminated(\n        ISuperToken superToken,\n        address agreementClass,\n        bytes32 /*agreementId*/,\n        bytes calldata agreementData,\n        bytes calldata /*cbdata*/,\n        bytes calldata ctx\n    )\n\n        external override\n        onlyHost\n        returns (bytes memory newCtx)\n    {\n        assert(agreementClass == address(_cfa));\n        StackVars memory vars;\n\n        vars.context = _host.decodeCtx(ctx);\n\n        // parse user data\n        (vars.mfaSender, vars.configuration) = _parseUserData(vars.context.userData);\n        // validate the context\n        (vars.flowSender, vars.flowReceiver) = abi.decode(agreementData, (address, address));\n        assert(vars.flowSender == address(this) || vars.flowReceiver == address(this));\n\n        bytes memory callData;\n        newCtx = ctx;\n        if (vars.flowReceiver == address(this)) {\n            for(uint256 i = 0; i < vars.configuration.receivers.length; i++) {\n                callData = abi.encodeWithSelector(\n                    _cfa.deleteFlow.selector,\n                    superToken,\n                    address(this),\n                    vars.configuration.receivers[i].to,\n                    new bytes(0) //placeholder ctx\n                );\n                (newCtx, ) = _host.callAgreementWithContext(\n                    _cfa,\n                    callData,\n                    new bytes(0), // user data\n                    newCtx\n                );\n            }\n        } else /* if (vars.flowSender == address(this)) */ {\n            for(uint256 i = 0; i < vars.configuration.receivers.length; i++) {\n                // skip current closed flow\n                if (vars.configuration.receivers[i].to == vars.flowReceiver) continue;\n                // close the rest of the mfa receiver flows\n                callData = abi.encodeWithSelector(\n                    _cfa.deleteFlow.selector,\n                    superToken,\n                    address(this),\n                    vars.configuration.receivers[i].to,\n                    new bytes(0) //placeholder ctx\n                );\n                (newCtx, ) = _host.callAgreementWithContext(\n                    _cfa,\n                    callData,\n                    new bytes(0), // user data\n                    newCtx\n                );\n            }\n            // close the mfa sender flow\n            callData = abi.encodeWithSelector(\n                _cfa.deleteFlow.selector,\n                superToken,\n                vars.mfaSender,\n                address(this),\n                new bytes(0) //placeholder ctx\n            );\n            (newCtx, ) = _host.callAgreementWithContext(\n                _cfa,\n                callData,\n                new bytes(0), // user data\n                newCtx\n            );\n        }\n    }\n\n    modifier onlyHost() {\n        assert(msg.sender == address(_host));\n        _;\n    }\n}\n",
  "sourcePath": "/home/bert/Documents/SuperFluid/fuse/contracts/MultiFlowApp.sol",
  "compiler": {
    "name": "solc",
    "version": "0.7.6+commit.7338295f.Emscripten.clang"
  },
  "schemaVersion": "3.4.1",
  "updatedAt": "2021-11-29T11:45:50.547Z",
  "devdoc": {
    "details": "Multi Flow (Super) App A super app that can split incoming flows to multiple outgoing flows. This is used for testing CFA callbacks logic.",
    "kind": "dev",
    "methods": {},
    "version": 1
  },
  "userdoc": {
    "kind": "user",
    "methods": {},
    "version": 1
  }
}